{
  "_format": "hh-sol-artifact-1",
  "contractName": "RentableNft",
  "sourceName": "contracts/RentableNft.sol",
  "abi": [
    {
      "inputs": [
        {
          "internalType": "address",
          "name": "marketplaceContract",
          "type": "address"
        }
      ],
      "stateMutability": "nonpayable",
      "type": "constructor"
    },
    {
      "anonymous": false,
      "inputs": [
        {
          "indexed": true,
          "internalType": "address",
          "name": "owner",
          "type": "address"
        },
        {
          "indexed": true,
          "internalType": "address",
          "name": "approved",
          "type": "address"
        },
        {
          "indexed": true,
          "internalType": "uint256",
          "name": "tokenId",
          "type": "uint256"
        }
      ],
      "name": "Approval",
      "type": "event"
    },
    {
      "anonymous": false,
      "inputs": [
        {
          "indexed": true,
          "internalType": "address",
          "name": "owner",
          "type": "address"
        },
        {
          "indexed": true,
          "internalType": "address",
          "name": "operator",
          "type": "address"
        },
        {
          "indexed": false,
          "internalType": "bool",
          "name": "approved",
          "type": "bool"
        }
      ],
      "name": "ApprovalForAll",
      "type": "event"
    },
    {
      "anonymous": false,
      "inputs": [
        {
          "indexed": true,
          "internalType": "address",
          "name": "from",
          "type": "address"
        },
        {
          "indexed": true,
          "internalType": "address",
          "name": "to",
          "type": "address"
        },
        {
          "indexed": true,
          "internalType": "uint256",
          "name": "tokenId",
          "type": "uint256"
        }
      ],
      "name": "Transfer",
      "type": "event"
    },
    {
      "anonymous": false,
      "inputs": [
        {
          "indexed": true,
          "internalType": "uint256",
          "name": "tokenId",
          "type": "uint256"
        },
        {
          "indexed": true,
          "internalType": "address",
          "name": "user",
          "type": "address"
        },
        {
          "indexed": false,
          "internalType": "uint64",
          "name": "expires",
          "type": "uint64"
        }
      ],
      "name": "UpdateUser",
      "type": "event"
    },
    {
      "inputs": [
        {
          "internalType": "address",
          "name": "to",
          "type": "address"
        },
        {
          "internalType": "uint256",
          "name": "tokenId",
          "type": "uint256"
        }
      ],
      "name": "approve",
      "outputs": [],
      "stateMutability": "nonpayable",
      "type": "function"
    },
    {
      "inputs": [
        {
          "internalType": "address",
          "name": "owner",
          "type": "address"
        }
      ],
      "name": "balanceOf",
      "outputs": [
        {
          "internalType": "uint256",
          "name": "",
          "type": "uint256"
        }
      ],
      "stateMutability": "view",
      "type": "function"
    },
    {
      "inputs": [
        {
          "internalType": "uint256",
          "name": "tokenId",
          "type": "uint256"
        }
      ],
      "name": "burn",
      "outputs": [],
      "stateMutability": "nonpayable",
      "type": "function"
    },
    {
      "inputs": [
        {
          "internalType": "uint256",
          "name": "tokenId",
          "type": "uint256"
        }
      ],
      "name": "getApproved",
      "outputs": [
        {
          "internalType": "address",
          "name": "",
          "type": "address"
        }
      ],
      "stateMutability": "view",
      "type": "function"
    },
    {
      "inputs": [
        {
          "internalType": "address",
          "name": "owner",
          "type": "address"
        },
        {
          "internalType": "address",
          "name": "operator",
          "type": "address"
        }
      ],
      "name": "isApprovedForAll",
      "outputs": [
        {
          "internalType": "bool",
          "name": "",
          "type": "bool"
        }
      ],
      "stateMutability": "view",
      "type": "function"
    },
    {
      "inputs": [
        {
          "internalType": "string",
          "name": "_tokenURI",
          "type": "string"
        }
      ],
      "name": "mint",
      "outputs": [],
      "stateMutability": "nonpayable",
      "type": "function"
    },
    {
      "inputs": [],
      "name": "name",
      "outputs": [
        {
          "internalType": "string",
          "name": "",
          "type": "string"
        }
      ],
      "stateMutability": "view",
      "type": "function"
    },
    {
      "inputs": [
        {
          "internalType": "uint256",
          "name": "tokenId",
          "type": "uint256"
        }
      ],
      "name": "ownerOf",
      "outputs": [
        {
          "internalType": "address",
          "name": "",
          "type": "address"
        }
      ],
      "stateMutability": "view",
      "type": "function"
    },
    {
      "inputs": [
        {
          "internalType": "address",
          "name": "from",
          "type": "address"
        },
        {
          "internalType": "address",
          "name": "to",
          "type": "address"
        },
        {
          "internalType": "uint256",
          "name": "tokenId",
          "type": "uint256"
        }
      ],
      "name": "safeTransferFrom",
      "outputs": [],
      "stateMutability": "nonpayable",
      "type": "function"
    },
    {
      "inputs": [
        {
          "internalType": "address",
          "name": "from",
          "type": "address"
        },
        {
          "internalType": "address",
          "name": "to",
          "type": "address"
        },
        {
          "internalType": "uint256",
          "name": "tokenId",
          "type": "uint256"
        },
        {
          "internalType": "bytes",
          "name": "data",
          "type": "bytes"
        }
      ],
      "name": "safeTransferFrom",
      "outputs": [],
      "stateMutability": "nonpayable",
      "type": "function"
    },
    {
      "inputs": [
        {
          "internalType": "address",
          "name": "operator",
          "type": "address"
        },
        {
          "internalType": "bool",
          "name": "approved",
          "type": "bool"
        }
      ],
      "name": "setApprovalForAll",
      "outputs": [],
      "stateMutability": "nonpayable",
      "type": "function"
    },
    {
      "inputs": [
        {
          "internalType": "uint256",
          "name": "tokenId",
          "type": "uint256"
        },
        {
          "internalType": "address",
          "name": "user",
          "type": "address"
        },
        {
          "internalType": "uint64",
          "name": "expires",
          "type": "uint64"
        }
      ],
      "name": "setUser",
      "outputs": [],
      "stateMutability": "nonpayable",
      "type": "function"
    },
    {
      "inputs": [
        {
          "internalType": "bytes4",
          "name": "interfaceId",
          "type": "bytes4"
        }
      ],
      "name": "supportsInterface",
      "outputs": [
        {
          "internalType": "bool",
          "name": "",
          "type": "bool"
        }
      ],
      "stateMutability": "view",
      "type": "function"
    },
    {
      "inputs": [],
      "name": "symbol",
      "outputs": [
        {
          "internalType": "string",
          "name": "",
          "type": "string"
        }
      ],
      "stateMutability": "view",
      "type": "function"
    },
    {
      "inputs": [
        {
          "internalType": "uint256",
          "name": "tokenId",
          "type": "uint256"
        }
      ],
      "name": "tokenURI",
      "outputs": [
        {
          "internalType": "string",
          "name": "",
          "type": "string"
        }
      ],
      "stateMutability": "view",
      "type": "function"
    },
    {
      "inputs": [
        {
          "internalType": "address",
          "name": "from",
          "type": "address"
        },
        {
          "internalType": "address",
          "name": "to",
          "type": "address"
        },
        {
          "internalType": "uint256",
          "name": "tokenId",
          "type": "uint256"
        }
      ],
      "name": "transferFrom",
      "outputs": [],
      "stateMutability": "nonpayable",
      "type": "function"
    },
    {
      "inputs": [
        {
          "internalType": "uint256",
          "name": "tokenId",
          "type": "uint256"
        }
      ],
      "name": "userExpires",
      "outputs": [
        {
          "internalType": "uint256",
          "name": "",
          "type": "uint256"
        }
      ],
      "stateMutability": "view",
      "type": "function"
    },
    {
      "inputs": [
        {
          "internalType": "uint256",
          "name": "tokenId",
          "type": "uint256"
        }
      ],
      "name": "userOf",
      "outputs": [
        {
          "internalType": "address",
          "name": "",
          "type": "address"
        }
      ],
      "stateMutability": "view",
      "type": "function"
    }
  ],
  "bytecode": "0x60806040523480156200001157600080fd5b5060405162001ced38038062001ced8339810160408190526200003491620000c4565b6040518060400160405280600b81526020016a14995b9d18589b1953999d60aa1b815250604051806040016040528060048152602001631493919560e21b815250818181600090816200008891906200019b565b5060016200009782826200019b565b5050600880546001600160a01b0319166001600160a01b0395909516949094179093555062000267915050565b600060208284031215620000d757600080fd5b81516001600160a01b0381168114620000ef57600080fd5b9392505050565b634e487b7160e01b600052604160045260246000fd5b600181811c908216806200012157607f821691505b6020821081036200014257634e487b7160e01b600052602260045260246000fd5b50919050565b601f8211156200019657600081815260208120601f850160051c81016020861015620001715750805b601f850160051c820191505b8181101562000192578281556001016200017d565b5050505b505050565b81516001600160401b03811115620001b757620001b7620000f6565b620001cf81620001c884546200010c565b8462000148565b602080601f831160018114620002075760008415620001ee5750858301515b600019600386901b1c1916600185901b17855562000192565b600085815260208120601f198616915b82811015620002385788860151825594840194600190910190840162000217565b5085821015620002575787850151600019600388901b60f8161c191681555b5050505050600190811b01905550565b611a7680620002776000396000f3fe608060405234801561001057600080fd5b50600436106101165760003560e01c80638fc88c48116100a2578063c2f1f14a11610071578063c2f1f14a14610264578063c87b56dd14610277578063d85d3d271461028a578063e030565e1461029d578063e985e9c5146102b057600080fd5b80638fc88c481461020557806395d89b4114610236578063a22cb4651461023e578063b88d4fde1461025157600080fd5b806323b872dd116100e957806323b872dd1461019857806342842e0e146101ab57806342966c68146101be5780636352211e146101d157806370a08231146101e457600080fd5b806301ffc9a71461011b57806306fdde0314610143578063081812fc14610158578063095ea7b314610183575b600080fd5b61012e61012936600461144d565b6102ec565b60405190151581526020015b60405180910390f35b61014b610317565b60405161013a91906114ba565b61016b6101663660046114cd565b6103a9565b6040516001600160a01b03909116815260200161013a565b6101966101913660046114fd565b6103d0565b005b6101966101a6366004611527565b6104ea565b6101966101b9366004611527565b61051b565b6101966101cc3660046114cd565b610536565b61016b6101df3660046114cd565b610542565b6101f76101f2366004611563565b6105a2565b60405190815260200161013a565b6101f76102133660046114cd565b600090815260076020526040902054600160a01b900467ffffffffffffffff1690565b61014b610628565b61019661024c36600461157e565b610637565b61019661025f366004611646565b610646565b61016b6102723660046114cd565b61067e565b61014b6102853660046114cd565b6106ce565b6101966102983660046116c2565b6107de565b6101966102ab36600461170b565b610824565b61012e6102be366004611758565b6001600160a01b03918216600090815260056020908152604080832093909416825291909152205460ff1690565b60006001600160e01b03198216632b424ad760e21b1480610311575061031182610916565b92915050565b6060600080546103269061178b565b80601f01602080910402602001604051908101604052809291908181526020018280546103529061178b565b801561039f5780601f106103745761010080835404028352916020019161039f565b820191906000526020600020905b81548152906001019060200180831161038257829003601f168201915b5050505050905090565b60006103b482610966565b506000908152600460205260409020546001600160a01b031690565b60006103db82610542565b9050806001600160a01b0316836001600160a01b03160361044d5760405162461bcd60e51b815260206004820152602160248201527f4552433732313a20617070726f76616c20746f2063757272656e74206f776e656044820152603960f91b60648201526084015b60405180910390fd5b336001600160a01b0382161480610469575061046981336102be565b6104db5760405162461bcd60e51b815260206004820152603d60248201527f4552433732313a20617070726f76652063616c6c6572206973206e6f7420746f60448201527f6b656e206f776e6572206f7220617070726f76656420666f7220616c6c0000006064820152608401610444565b6104e583836109c5565b505050565b6104f43382610a33565b6105105760405162461bcd60e51b8152600401610444906117c5565b6104e5838383610ab1565b6104e583838360405180602001604052806000815250610646565b61053f81610c22565b50565b6000818152600260205260408120546001600160a01b0316806103115760405162461bcd60e51b8152602060048201526018602482015277115490cdcc8c4e881a5b9d985b1a59081d1bdad95b88125160421b6044820152606401610444565b60006001600160a01b03821661060c5760405162461bcd60e51b815260206004820152602960248201527f4552433732313a2061646472657373207a65726f206973206e6f7420612076616044820152683634b21037bbb732b960b91b6064820152608401610444565b506001600160a01b031660009081526003602052604090205490565b6060600180546103269061178b565b610642338383610c62565b5050565b6106503383610a33565b61066c5760405162461bcd60e51b8152600401610444906117c5565b61067884848484610d30565b50505050565b60008181526007602052604081205442600160a01b90910467ffffffffffffffff16106106c157506000908152600760205260409020546001600160a01b031690565b506000919050565b919050565b60606106d982610966565b600082815260066020526040812080546106f29061178b565b80601f016020809104026020016040519081016040528092919081815260200182805461071e9061178b565b801561076b5780601f106107405761010080835404028352916020019161076b565b820191906000526020600020905b81548152906001019060200180831161074e57829003601f168201915b50505050509050600061078960408051602081019091526000815290565b9050805160000361079b575092915050565b8151156107cd5780826040516020016107b5929190611812565b60405160208183030381529060405292505050919050565b6107d684610d63565b949350505050565b6107ec600980546001019055565b60006107f760095490565b90506108033382610dd7565b60085461081a906001600160a01b03166001610637565b6106428183610df1565b61082e3384610a33565b6108945760405162461bcd60e51b815260206004820152603160248201527f4552433732313a207472616e736665722063616c6c6572206973206e6f74206f6044820152701ddb995c881b9bdc88185c1c1c9bdd9959607a1b6064820152608401610444565b60008381526007602090815260409182902080546001600160a01b0386166001600160e01b03199091168117600160a01b67ffffffffffffffff871690810291909117835593519384529092909186917f4e06b4e7000e659094299b3533b47b6aa8ad048e95e872d23d1f4ee55af89cfe91015b60405180910390a350505050565b60006001600160e01b031982166380ac58cd60e01b148061094757506001600160e01b03198216635b5e139f60e01b145b8061031157506301ffc9a760e01b6001600160e01b0319831614610311565b6000818152600260205260409020546001600160a01b031661053f5760405162461bcd60e51b8152602060048201526018602482015277115490cdcc8c4e881a5b9d985b1a59081d1bdad95b88125160421b6044820152606401610444565b600081815260046020526040902080546001600160a01b0319166001600160a01b03841690811790915581906109fa82610542565b6001600160a01b03167f8c5be1e5ebec7d5bd14f71427d1e84f3dd0314c0f7b2291e5b200ac8c7c3b92560405160405180910390a45050565b600080610a3f83610542565b9050806001600160a01b0316846001600160a01b03161480610a8657506001600160a01b0380821660009081526005602090815260408083209388168352929052205460ff165b806107d65750836001600160a01b0316610a9f846103a9565b6001600160a01b031614949350505050565b826001600160a01b0316610ac482610542565b6001600160a01b031614610aea5760405162461bcd60e51b815260040161044490611841565b6001600160a01b038216610b4c5760405162461bcd60e51b8152602060048201526024808201527f4552433732313a207472616e7366657220746f20746865207a65726f206164646044820152637265737360e01b6064820152608401610444565b610b598383836001610e84565b826001600160a01b0316610b6c82610542565b6001600160a01b031614610b925760405162461bcd60e51b815260040161044490611841565b600081815260046020908152604080832080546001600160a01b03199081169091556001600160a01b0387811680865260038552838620805460001901905590871680865283862080546001019055868652600290945282852080549092168417909155905184937fddf252ad1be2c89b69c2b068fc378daa952ba7f163c4a11628f55a4df523b3ef91a4505050565b610c2b81610f0e565b60008181526006602052604090208054610c449061178b565b15905061053f57600081815260066020526040812061053f916113e9565b816001600160a01b0316836001600160a01b031603610cc35760405162461bcd60e51b815260206004820152601960248201527f4552433732313a20617070726f766520746f2063616c6c6572000000000000006044820152606401610444565b6001600160a01b03838116600081815260056020908152604080832094871680845294825291829020805460ff191686151590811790915591519182527f17307eab39ab6107e8899845ad3d59bd9653f200f220920489ca2b5937696c31910160405180910390a3505050565b610d3b848484610ab1565b610d4784848484610fb1565b6106785760405162461bcd60e51b815260040161044490611886565b6060610d6e82610966565b6000610d8560408051602081019091526000815290565b90506000815111610da55760405180602001604052806000815250610dd0565b80610daf846110b2565b604051602001610dc0929190611812565b6040516020818303038152906040525b9392505050565b610642828260405180602001604052806000815250611145565b6000828152600260205260409020546001600160a01b0316610e6c5760405162461bcd60e51b815260206004820152602e60248201527f45524337323155524953746f726167653a2055524920736574206f66206e6f6e60448201526d32bc34b9ba32b73a103a37b5b2b760911b6064820152608401610444565b60008281526006602052604090206104e58282611926565b826001600160a01b0316846001600160a01b031614158015610ebc57506000828152600760205260409020546001600160a01b031615155b1561067857600082815260076020908152604080832080546001600160e01b03191690555182815284917f4e06b4e7000e659094299b3533b47b6aa8ad048e95e872d23d1f4ee55af89cfe9101610908565b6000610f1982610542565b9050610f29816000846001610e84565b610f3282610542565b600083815260046020908152604080832080546001600160a01b03199081169091556001600160a01b0385168085526003845282852080546000190190558785526002909352818420805490911690555192935084927fddf252ad1be2c89b69c2b068fc378daa952ba7f163c4a11628f55a4df523b3ef908390a45050565b60006001600160a01b0384163b156110a757604051630a85bd0160e11b81526001600160a01b0385169063150b7a0290610ff59033908990889088906004016119e6565b6020604051808303816000875af1925050508015611030575060408051601f3d908101601f1916820190925261102d91810190611a23565b60015b61108d573d80801561105e576040519150601f19603f3d011682016040523d82523d6000602084013e611063565b606091505b5080516000036110855760405162461bcd60e51b815260040161044490611886565b805181602001fd5b6001600160e01b031916630a85bd0160e11b1490506107d6565b506001949350505050565b606060006110bf83611178565b600101905060008167ffffffffffffffff8111156110df576110df6115ba565b6040519080825280601f01601f191660200182016040528015611109576020820181803683370190505b5090508181016020015b600019016f181899199a1a9b1b9c1cb0b131b232b360811b600a86061a8153600a850494508461111357509392505050565b61114f8383611250565b61115c6000848484610fb1565b6104e55760405162461bcd60e51b815260040161044490611886565b60008072184f03e93ff9f4daa797ed6e38ed64bf6a1f0160401b83106111b75772184f03e93ff9f4daa797ed6e38ed64bf6a1f0160401b830492506040015b6d04ee2d6d415b85acef810000000083106111e3576d04ee2d6d415b85acef8100000000830492506020015b662386f26fc10000831061120157662386f26fc10000830492506010015b6305f5e1008310611219576305f5e100830492506008015b612710831061122d57612710830492506004015b6064831061123f576064830492506002015b600a83106103115760010192915050565b6001600160a01b0382166112a65760405162461bcd60e51b815260206004820181905260248201527f4552433732313a206d696e7420746f20746865207a65726f20616464726573736044820152606401610444565b6000818152600260205260409020546001600160a01b03161561130b5760405162461bcd60e51b815260206004820152601c60248201527f4552433732313a20746f6b656e20616c7265616479206d696e746564000000006044820152606401610444565b611319600083836001610e84565b6000818152600260205260409020546001600160a01b03161561137e5760405162461bcd60e51b815260206004820152601c60248201527f4552433732313a20746f6b656e20616c7265616479206d696e746564000000006044820152606401610444565b6001600160a01b038216600081815260036020908152604080832080546001019055848352600290915280822080546001600160a01b0319168417905551839291907fddf252ad1be2c89b69c2b068fc378daa952ba7f163c4a11628f55a4df523b3ef908290a45050565b5080546113f59061178b565b6000825580601f10611405575050565b601f01602090049060005260206000209081019061053f91905b80821115611433576000815560010161141f565b5090565b6001600160e01b03198116811461053f57600080fd5b60006020828403121561145f57600080fd5b8135610dd081611437565b60005b8381101561148557818101518382015260200161146d565b50506000910152565b600081518084526114a681602086016020860161146a565b601f01601f19169290920160200192915050565b602081526000610dd0602083018461148e565b6000602082840312156114df57600080fd5b5035919050565b80356001600160a01b03811681146106c957600080fd5b6000806040838503121561151057600080fd5b611519836114e6565b946020939093013593505050565b60008060006060848603121561153c57600080fd5b611545846114e6565b9250611553602085016114e6565b9150604084013590509250925092565b60006020828403121561157557600080fd5b610dd0826114e6565b6000806040838503121561159157600080fd5b61159a836114e6565b9150602083013580151581146115af57600080fd5b809150509250929050565b634e487b7160e01b600052604160045260246000fd5b600067ffffffffffffffff808411156115eb576115eb6115ba565b604051601f8501601f19908116603f01168101908282118183101715611613576116136115ba565b8160405280935085815286868601111561162c57600080fd5b858560208301376000602087830101525050509392505050565b6000806000806080858703121561165c57600080fd5b611665856114e6565b9350611673602086016114e6565b925060408501359150606085013567ffffffffffffffff81111561169657600080fd5b8501601f810187136116a757600080fd5b6116b6878235602084016115d0565b91505092959194509250565b6000602082840312156116d457600080fd5b813567ffffffffffffffff8111156116eb57600080fd5b8201601f810184136116fc57600080fd5b6107d6848235602084016115d0565b60008060006060848603121561172057600080fd5b83359250611730602085016114e6565b9150604084013567ffffffffffffffff8116811461174d57600080fd5b809150509250925092565b6000806040838503121561176b57600080fd5b611774836114e6565b9150611782602084016114e6565b90509250929050565b600181811c9082168061179f57607f821691505b6020821081036117bf57634e487b7160e01b600052602260045260246000fd5b50919050565b6020808252602d908201527f4552433732313a2063616c6c6572206973206e6f7420746f6b656e206f776e6560408201526c1c881bdc88185c1c1c9bdd9959609a1b606082015260800190565b6000835161182481846020880161146a565b83519083019061183881836020880161146a565b01949350505050565b60208082526025908201527f4552433732313a207472616e736665722066726f6d20696e636f72726563742060408201526437bbb732b960d91b606082015260800190565b60208082526032908201527f4552433732313a207472616e7366657220746f206e6f6e20455243373231526560408201527131b2b4bb32b91034b6b83632b6b2b73a32b960711b606082015260800190565b601f8211156104e557600081815260208120601f850160051c810160208610156118ff5750805b601f850160051c820191505b8181101561191e5782815560010161190b565b505050505050565b815167ffffffffffffffff811115611940576119406115ba565b6119548161194e845461178b565b846118d8565b602080601f83116001811461198957600084156119715750858301515b600019600386901b1c1916600185901b17855561191e565b600085815260208120601f198616915b828110156119b857888601518255948401946001909101908401611999565b50858210156119d65787850151600019600388901b60f8161c191681555b5050505050600190811b01905550565b6001600160a01b0385811682528416602082015260408101839052608060608201819052600090611a199083018461148e565b9695505050505050565b600060208284031215611a3557600080fd5b8151610dd08161143756fea26469706673582212208c922df5d7d10bf0d1fe99f3c9adbaf21235e8c9f645b7a0df13f966c615fb0f64736f6c63430008120033",
  "linkReferences": {},
  "deployedLinkReferences": {}
}