{
  "_format": "hh-sol-artifact-1",
  "contractName": "ERC4907",
  "sourceName": "contracts/ERC4907.sol",
  "abi": [
    {
      "inputs": [
        {
          "internalType": "string",
          "name": "name_",
          "type": "string"
        },
        {
          "internalType": "string",
          "name": "symbol_",
          "type": "string"
        }
      ],
      "stateMutability": "nonpayable",
      "type": "constructor"
    },
    {
      "anonymous": false,
      "inputs": [
        {
          "indexed": true,
          "internalType": "address",
          "name": "owner",
          "type": "address"
        },
        {
          "indexed": true,
          "internalType": "address",
          "name": "approved",
          "type": "address"
        },
        {
          "indexed": true,
          "internalType": "uint256",
          "name": "tokenId",
          "type": "uint256"
        }
      ],
      "name": "Approval",
      "type": "event"
    },
    {
      "anonymous": false,
      "inputs": [
        {
          "indexed": true,
          "internalType": "address",
          "name": "owner",
          "type": "address"
        },
        {
          "indexed": true,
          "internalType": "address",
          "name": "operator",
          "type": "address"
        },
        {
          "indexed": false,
          "internalType": "bool",
          "name": "approved",
          "type": "bool"
        }
      ],
      "name": "ApprovalForAll",
      "type": "event"
    },
    {
      "anonymous": false,
      "inputs": [
        {
          "indexed": true,
          "internalType": "address",
          "name": "from",
          "type": "address"
        },
        {
          "indexed": true,
          "internalType": "address",
          "name": "to",
          "type": "address"
        },
        {
          "indexed": true,
          "internalType": "uint256",
          "name": "tokenId",
          "type": "uint256"
        }
      ],
      "name": "Transfer",
      "type": "event"
    },
    {
      "anonymous": false,
      "inputs": [
        {
          "indexed": true,
          "internalType": "uint256",
          "name": "tokenId",
          "type": "uint256"
        },
        {
          "indexed": true,
          "internalType": "address",
          "name": "user",
          "type": "address"
        },
        {
          "indexed": false,
          "internalType": "uint64",
          "name": "expires",
          "type": "uint64"
        }
      ],
      "name": "UpdateUser",
      "type": "event"
    },
    {
      "inputs": [
        {
          "internalType": "address",
          "name": "to",
          "type": "address"
        },
        {
          "internalType": "uint256",
          "name": "tokenId",
          "type": "uint256"
        }
      ],
      "name": "approve",
      "outputs": [],
      "stateMutability": "nonpayable",
      "type": "function"
    },
    {
      "inputs": [
        {
          "internalType": "address",
          "name": "owner",
          "type": "address"
        }
      ],
      "name": "balanceOf",
      "outputs": [
        {
          "internalType": "uint256",
          "name": "",
          "type": "uint256"
        }
      ],
      "stateMutability": "view",
      "type": "function"
    },
    {
      "inputs": [
        {
          "internalType": "uint256",
          "name": "tokenId",
          "type": "uint256"
        }
      ],
      "name": "getApproved",
      "outputs": [
        {
          "internalType": "address",
          "name": "",
          "type": "address"
        }
      ],
      "stateMutability": "view",
      "type": "function"
    },
    {
      "inputs": [
        {
          "internalType": "address",
          "name": "owner",
          "type": "address"
        },
        {
          "internalType": "address",
          "name": "operator",
          "type": "address"
        }
      ],
      "name": "isApprovedForAll",
      "outputs": [
        {
          "internalType": "bool",
          "name": "",
          "type": "bool"
        }
      ],
      "stateMutability": "view",
      "type": "function"
    },
    {
      "inputs": [],
      "name": "name",
      "outputs": [
        {
          "internalType": "string",
          "name": "",
          "type": "string"
        }
      ],
      "stateMutability": "view",
      "type": "function"
    },
    {
      "inputs": [
        {
          "internalType": "uint256",
          "name": "tokenId",
          "type": "uint256"
        }
      ],
      "name": "ownerOf",
      "outputs": [
        {
          "internalType": "address",
          "name": "",
          "type": "address"
        }
      ],
      "stateMutability": "view",
      "type": "function"
    },
    {
      "inputs": [
        {
          "internalType": "address",
          "name": "from",
          "type": "address"
        },
        {
          "internalType": "address",
          "name": "to",
          "type": "address"
        },
        {
          "internalType": "uint256",
          "name": "tokenId",
          "type": "uint256"
        }
      ],
      "name": "safeTransferFrom",
      "outputs": [],
      "stateMutability": "nonpayable",
      "type": "function"
    },
    {
      "inputs": [
        {
          "internalType": "address",
          "name": "from",
          "type": "address"
        },
        {
          "internalType": "address",
          "name": "to",
          "type": "address"
        },
        {
          "internalType": "uint256",
          "name": "tokenId",
          "type": "uint256"
        },
        {
          "internalType": "bytes",
          "name": "data",
          "type": "bytes"
        }
      ],
      "name": "safeTransferFrom",
      "outputs": [],
      "stateMutability": "nonpayable",
      "type": "function"
    },
    {
      "inputs": [
        {
          "internalType": "address",
          "name": "operator",
          "type": "address"
        },
        {
          "internalType": "bool",
          "name": "approved",
          "type": "bool"
        }
      ],
      "name": "setApprovalForAll",
      "outputs": [],
      "stateMutability": "nonpayable",
      "type": "function"
    },
    {
      "inputs": [
        {
          "internalType": "uint256",
          "name": "tokenId",
          "type": "uint256"
        },
        {
          "internalType": "address",
          "name": "user",
          "type": "address"
        },
        {
          "internalType": "uint64",
          "name": "expires",
          "type": "uint64"
        }
      ],
      "name": "setUser",
      "outputs": [],
      "stateMutability": "nonpayable",
      "type": "function"
    },
    {
      "inputs": [
        {
          "internalType": "bytes4",
          "name": "interfaceId",
          "type": "bytes4"
        }
      ],
      "name": "supportsInterface",
      "outputs": [
        {
          "internalType": "bool",
          "name": "",
          "type": "bool"
        }
      ],
      "stateMutability": "view",
      "type": "function"
    },
    {
      "inputs": [],
      "name": "symbol",
      "outputs": [
        {
          "internalType": "string",
          "name": "",
          "type": "string"
        }
      ],
      "stateMutability": "view",
      "type": "function"
    },
    {
      "inputs": [
        {
          "internalType": "uint256",
          "name": "tokenId",
          "type": "uint256"
        }
      ],
      "name": "tokenURI",
      "outputs": [
        {
          "internalType": "string",
          "name": "",
          "type": "string"
        }
      ],
      "stateMutability": "view",
      "type": "function"
    },
    {
      "inputs": [
        {
          "internalType": "address",
          "name": "from",
          "type": "address"
        },
        {
          "internalType": "address",
          "name": "to",
          "type": "address"
        },
        {
          "internalType": "uint256",
          "name": "tokenId",
          "type": "uint256"
        }
      ],
      "name": "transferFrom",
      "outputs": [],
      "stateMutability": "nonpayable",
      "type": "function"
    },
    {
      "inputs": [
        {
          "internalType": "uint256",
          "name": "tokenId",
          "type": "uint256"
        }
      ],
      "name": "userExpires",
      "outputs": [
        {
          "internalType": "uint256",
          "name": "",
          "type": "uint256"
        }
      ],
      "stateMutability": "view",
      "type": "function"
    },
    {
      "inputs": [
        {
          "internalType": "uint256",
          "name": "tokenId",
          "type": "uint256"
        }
      ],
      "name": "userOf",
      "outputs": [
        {
          "internalType": "address",
          "name": "",
          "type": "address"
        }
      ],
      "stateMutability": "view",
      "type": "function"
    }
  ],
  "bytecode": "0x60806040523480156200001157600080fd5b50604051620017cc380380620017cc833981016040819052620000349162000123565b818160006200004483826200021c565b5060016200005382826200021c565b5050505050620002e8565b634e487b7160e01b600052604160045260246000fd5b600082601f8301126200008657600080fd5b81516001600160401b0380821115620000a357620000a36200005e565b604051601f8301601f19908116603f01168101908282118183101715620000ce57620000ce6200005e565b81604052838152602092508683858801011115620000eb57600080fd5b600091505b838210156200010f5785820183015181830184015290820190620000f0565b600093810190920192909252949350505050565b600080604083850312156200013757600080fd5b82516001600160401b03808211156200014f57600080fd5b6200015d8683870162000074565b935060208501519150808211156200017457600080fd5b50620001838582860162000074565b9150509250929050565b600181811c90821680620001a257607f821691505b602082108103620001c357634e487b7160e01b600052602260045260246000fd5b50919050565b601f8211156200021757600081815260208120601f850160051c81016020861015620001f25750805b601f850160051c820191505b818110156200021357828155600101620001fe565b5050505b505050565b81516001600160401b038111156200023857620002386200005e565b62000250816200024984546200018d565b84620001c9565b602080601f8311600181146200028857600084156200026f5750858301515b600019600386901b1c1916600185901b17855562000213565b600085815260208120601f198616915b82811015620002b95788860151825594840194600190910190840162000298565b5085821015620002d85787850151600019600388901b60f8161c191681555b5050505050600190811b01905550565b6114d480620002f86000396000f3fe608060405234801561001057600080fd5b50600436106101005760003560e01c80638fc88c4811610097578063c2f1f14a11610066578063c2f1f14a1461023b578063c87b56dd1461024e578063e030565e14610261578063e985e9c51461027457600080fd5b80638fc88c48146101dc57806395d89b411461020d578063a22cb46514610215578063b88d4fde1461022857600080fd5b806323b872dd116100d357806323b872dd1461018257806342842e0e146101955780636352211e146101a857806370a08231146101bb57600080fd5b806301ffc9a71461010557806306fdde031461012d578063081812fc14610142578063095ea7b31461016d575b600080fd5b610118610113366004611018565b6102b0565b60405190151581526020015b60405180910390f35b6101356102db565b6040516101249190611085565b610155610150366004611098565b61036d565b6040516001600160a01b039091168152602001610124565b61018061017b3660046110c8565b610394565b005b6101806101903660046110f2565b6104ae565b6101806101a33660046110f2565b6104df565b6101556101b6366004611098565b6104fa565b6101ce6101c936600461112e565b61055a565b604051908152602001610124565b6101ce6101ea366004611098565b600090815260076020526040902054600160a01b900467ffffffffffffffff1690565b6101356105e0565b610180610223366004611149565b6105ef565b61018061023636600461119b565b6105fe565b610155610249366004611098565b610636565b61013561025c366004611098565b610686565b61018061026f366004611277565b610796565b6101186102823660046112c4565b6001600160a01b03918216600090815260056020908152604080832093909416825291909152205460ff1690565b60006001600160e01b03198216632b424ad760e21b14806102d557506102d582610888565b92915050565b6060600080546102ea906112f7565b80601f0160208091040260200160405190810160405280929190818152602001828054610316906112f7565b80156103635780601f1061033857610100808354040283529160200191610363565b820191906000526020600020905b81548152906001019060200180831161034657829003601f168201915b5050505050905090565b6000610378826108d8565b506000908152600460205260409020546001600160a01b031690565b600061039f826104fa565b9050806001600160a01b0316836001600160a01b0316036104115760405162461bcd60e51b815260206004820152602160248201527f4552433732313a20617070726f76616c20746f2063757272656e74206f776e656044820152603960f91b60648201526084015b60405180910390fd5b336001600160a01b038216148061042d575061042d8133610282565b61049f5760405162461bcd60e51b815260206004820152603d60248201527f4552433732313a20617070726f76652063616c6c6572206973206e6f7420746f60448201527f6b656e206f776e6572206f7220617070726f76656420666f7220616c6c0000006064820152608401610408565b6104a9838361093a565b505050565b6104b833826109a8565b6104d45760405162461bcd60e51b815260040161040890611331565b6104a9838383610a26565b6104a9838383604051806020016040528060008152506105fe565b6000818152600260205260408120546001600160a01b0316806102d55760405162461bcd60e51b8152602060048201526018602482015277115490cdcc8c4e881a5b9d985b1a59081d1bdad95b88125160421b6044820152606401610408565b60006001600160a01b0382166105c45760405162461bcd60e51b815260206004820152602960248201527f4552433732313a2061646472657373207a65726f206973206e6f7420612076616044820152683634b21037bbb732b960b91b6064820152608401610408565b506001600160a01b031660009081526003602052604090205490565b6060600180546102ea906112f7565b6105fa338383610b97565b5050565b61060833836109a8565b6106245760405162461bcd60e51b815260040161040890611331565b61063084848484610c65565b50505050565b60008181526007602052604081205442600160a01b90910467ffffffffffffffff161061067957506000908152600760205260409020546001600160a01b031690565b506000919050565b919050565b6060610691826108d8565b600082815260066020526040812080546106aa906112f7565b80601f01602080910402602001604051908101604052809291908181526020018280546106d6906112f7565b80156107235780601f106106f857610100808354040283529160200191610723565b820191906000526020600020905b81548152906001019060200180831161070657829003601f168201915b50505050509050600061074160408051602081019091526000815290565b90508051600003610753575092915050565b81511561078557808260405160200161076d92919061137e565b60405160208183030381529060405292505050919050565b61078e84610c98565b949350505050565b6107a033846109a8565b6108065760405162461bcd60e51b815260206004820152603160248201527f4552433732313a207472616e736665722063616c6c6572206973206e6f74206f6044820152701ddb995c881b9bdc88185c1c1c9bdd9959607a1b6064820152608401610408565b60008381526007602090815260409182902080546001600160a01b0386166001600160e01b03199091168117600160a01b67ffffffffffffffff871690810291909117835593519384529092909186917f4e06b4e7000e659094299b3533b47b6aa8ad048e95e872d23d1f4ee55af89cfe91015b60405180910390a350505050565b60006001600160e01b031982166380ac58cd60e01b14806108b957506001600160e01b03198216635b5e139f60e01b145b806102d557506301ffc9a760e01b6001600160e01b03198316146102d5565b6000818152600260205260409020546001600160a01b03166109375760405162461bcd60e51b8152602060048201526018602482015277115490cdcc8c4e881a5b9d985b1a59081d1bdad95b88125160421b6044820152606401610408565b50565b600081815260046020526040902080546001600160a01b0319166001600160a01b038416908117909155819061096f826104fa565b6001600160a01b03167f8c5be1e5ebec7d5bd14f71427d1e84f3dd0314c0f7b2291e5b200ac8c7c3b92560405160405180910390a45050565b6000806109b4836104fa565b9050806001600160a01b0316846001600160a01b031614806109fb57506001600160a01b0380821660009081526005602090815260408083209388168352929052205460ff165b8061078e5750836001600160a01b0316610a148461036d565b6001600160a01b031614949350505050565b826001600160a01b0316610a39826104fa565b6001600160a01b031614610a5f5760405162461bcd60e51b8152600401610408906113ad565b6001600160a01b038216610ac15760405162461bcd60e51b8152602060048201526024808201527f4552433732313a207472616e7366657220746f20746865207a65726f206164646044820152637265737360e01b6064820152608401610408565b610ace8383836001610d0c565b826001600160a01b0316610ae1826104fa565b6001600160a01b031614610b075760405162461bcd60e51b8152600401610408906113ad565b600081815260046020908152604080832080546001600160a01b03199081169091556001600160a01b0387811680865260038552838620805460001901905590871680865283862080546001019055868652600290945282852080549092168417909155905184937fddf252ad1be2c89b69c2b068fc378daa952ba7f163c4a11628f55a4df523b3ef91a4505050565b816001600160a01b0316836001600160a01b031603610bf85760405162461bcd60e51b815260206004820152601960248201527f4552433732313a20617070726f766520746f2063616c6c6572000000000000006044820152606401610408565b6001600160a01b03838116600081815260056020908152604080832094871680845294825291829020805460ff191686151590811790915591519182527f17307eab39ab6107e8899845ad3d59bd9653f200f220920489ca2b5937696c31910160405180910390a3505050565b610c70848484610a26565b610c7c84848484610d96565b6106305760405162461bcd60e51b8152600401610408906113f2565b6060610ca3826108d8565b6000610cba60408051602081019091526000815290565b90506000815111610cda5760405180602001604052806000815250610d05565b80610ce484610e97565b604051602001610cf592919061137e565b6040516020818303038152906040525b9392505050565b826001600160a01b0316846001600160a01b031614158015610d4457506000828152600760205260409020546001600160a01b031615155b1561063057600082815260076020908152604080832080546001600160e01b03191690555182815284917f4e06b4e7000e659094299b3533b47b6aa8ad048e95e872d23d1f4ee55af89cfe910161087a565b60006001600160a01b0384163b15610e8c57604051630a85bd0160e11b81526001600160a01b0385169063150b7a0290610dda903390899088908890600401611444565b6020604051808303816000875af1925050508015610e15575060408051601f3d908101601f19168201909252610e1291810190611481565b60015b610e72573d808015610e43576040519150601f19603f3d011682016040523d82523d6000602084013e610e48565b606091505b508051600003610e6a5760405162461bcd60e51b8152600401610408906113f2565b805181602001fd5b6001600160e01b031916630a85bd0160e11b14905061078e565b506001949350505050565b60606000610ea483610f2a565b600101905060008167ffffffffffffffff811115610ec457610ec4611185565b6040519080825280601f01601f191660200182016040528015610eee576020820181803683370190505b5090508181016020015b600019016f181899199a1a9b1b9c1cb0b131b232b360811b600a86061a8153600a8504945084610ef857509392505050565b60008072184f03e93ff9f4daa797ed6e38ed64bf6a1f0160401b8310610f695772184f03e93ff9f4daa797ed6e38ed64bf6a1f0160401b830492506040015b6d04ee2d6d415b85acef81000000008310610f95576d04ee2d6d415b85acef8100000000830492506020015b662386f26fc100008310610fb357662386f26fc10000830492506010015b6305f5e1008310610fcb576305f5e100830492506008015b6127108310610fdf57612710830492506004015b60648310610ff1576064830492506002015b600a83106102d55760010192915050565b6001600160e01b03198116811461093757600080fd5b60006020828403121561102a57600080fd5b8135610d0581611002565b60005b83811015611050578181015183820152602001611038565b50506000910152565b60008151808452611071816020860160208601611035565b601f01601f19169290920160200192915050565b602081526000610d056020830184611059565b6000602082840312156110aa57600080fd5b5035919050565b80356001600160a01b038116811461068157600080fd5b600080604083850312156110db57600080fd5b6110e4836110b1565b946020939093013593505050565b60008060006060848603121561110757600080fd5b611110846110b1565b925061111e602085016110b1565b9150604084013590509250925092565b60006020828403121561114057600080fd5b610d05826110b1565b6000806040838503121561115c57600080fd5b611165836110b1565b91506020830135801515811461117a57600080fd5b809150509250929050565b634e487b7160e01b600052604160045260246000fd5b600080600080608085870312156111b157600080fd5b6111ba856110b1565b93506111c8602086016110b1565b925060408501359150606085013567ffffffffffffffff808211156111ec57600080fd5b818701915087601f83011261120057600080fd5b81358181111561121257611212611185565b604051601f8201601f19908116603f0116810190838211818310171561123a5761123a611185565b816040528281528a602084870101111561125357600080fd5b82602086016020830137600060208483010152809550505050505092959194509250565b60008060006060848603121561128c57600080fd5b8335925061129c602085016110b1565b9150604084013567ffffffffffffffff811681146112b957600080fd5b809150509250925092565b600080604083850312156112d757600080fd5b6112e0836110b1565b91506112ee602084016110b1565b90509250929050565b600181811c9082168061130b57607f821691505b60208210810361132b57634e487b7160e01b600052602260045260246000fd5b50919050565b6020808252602d908201527f4552433732313a2063616c6c6572206973206e6f7420746f6b656e206f776e6560408201526c1c881bdc88185c1c1c9bdd9959609a1b606082015260800190565b60008351611390818460208801611035565b8351908301906113a4818360208801611035565b01949350505050565b60208082526025908201527f4552433732313a207472616e736665722066726f6d20696e636f72726563742060408201526437bbb732b960d91b606082015260800190565b60208082526032908201527f4552433732313a207472616e7366657220746f206e6f6e20455243373231526560408201527131b2b4bb32b91034b6b83632b6b2b73a32b960711b606082015260800190565b6001600160a01b038581168252841660208201526040810183905260806060820181905260009061147790830184611059565b9695505050505050565b60006020828403121561149357600080fd5b8151610d058161100256fea26469706673582212206d3ee62908c913de8b0004372a4ed5d8a854cc173471e3c8a574bb2a6006063364736f6c63430008120033",
  "linkReferences": {},
  "deployedLinkReferences": {}
}