{
  "_format": "hh-sol-artifact-1",
  "contractName": "Marketplace",
  "sourceName": "contracts/Marketplace.sol",
  "abi": [
    {
      "inputs": [],
      "stateMutability": "nonpayable",
      "type": "constructor"
    },
    {
      "anonymous": false,
      "inputs": [
        {
          "indexed": false,
          "internalType": "address",
          "name": "owner",
          "type": "address"
        },
        {
          "indexed": false,
          "internalType": "address",
          "name": "user",
          "type": "address"
        },
        {
          "indexed": false,
          "internalType": "address",
          "name": "nftContract",
          "type": "address"
        },
        {
          "indexed": false,
          "internalType": "uint256",
          "name": "tokenId",
          "type": "uint256"
        },
        {
          "indexed": false,
          "internalType": "uint256",
          "name": "pricePerDay",
          "type": "uint256"
        },
        {
          "indexed": false,
          "internalType": "uint256",
          "name": "startDateUNIX",
          "type": "uint256"
        },
        {
          "indexed": false,
          "internalType": "uint256",
          "name": "endDateUNIX",
          "type": "uint256"
        },
        {
          "indexed": false,
          "internalType": "uint256",
          "name": "expires",
          "type": "uint256"
        }
      ],
      "name": "NFTListed",
      "type": "event"
    },
    {
      "anonymous": false,
      "inputs": [
        {
          "indexed": false,
          "internalType": "address",
          "name": "owner",
          "type": "address"
        },
        {
          "indexed": false,
          "internalType": "address",
          "name": "user",
          "type": "address"
        },
        {
          "indexed": false,
          "internalType": "address",
          "name": "nftContract",
          "type": "address"
        },
        {
          "indexed": false,
          "internalType": "uint256",
          "name": "tokenId",
          "type": "uint256"
        },
        {
          "indexed": false,
          "internalType": "uint256",
          "name": "startDateUNIX",
          "type": "uint256"
        },
        {
          "indexed": false,
          "internalType": "uint256",
          "name": "endDateUNIX",
          "type": "uint256"
        },
        {
          "indexed": false,
          "internalType": "uint64",
          "name": "expires",
          "type": "uint64"
        },
        {
          "indexed": false,
          "internalType": "uint256",
          "name": "rentalFee",
          "type": "uint256"
        }
      ],
      "name": "NFTRented",
      "type": "event"
    },
    {
      "anonymous": false,
      "inputs": [
        {
          "indexed": false,
          "internalType": "address",
          "name": "unlistSender",
          "type": "address"
        },
        {
          "indexed": false,
          "internalType": "address",
          "name": "nftContract",
          "type": "address"
        },
        {
          "indexed": false,
          "internalType": "uint256",
          "name": "tokenId",
          "type": "uint256"
        },
        {
          "indexed": false,
          "internalType": "uint256",
          "name": "refund",
          "type": "uint256"
        }
      ],
      "name": "NFTUnlisted",
      "type": "event"
    },
    {
      "inputs": [],
      "name": "getAllListings",
      "outputs": [
        {
          "components": [
            {
              "internalType": "address",
              "name": "owner",
              "type": "address"
            },
            {
              "internalType": "address",
              "name": "user",
              "type": "address"
            },
            {
              "internalType": "address",
              "name": "nftContract",
              "type": "address"
            },
            {
              "internalType": "uint256",
              "name": "tokenId",
              "type": "uint256"
            },
            {
              "internalType": "uint256",
              "name": "pricePerDay",
              "type": "uint256"
            },
            {
              "internalType": "uint256",
              "name": "startDateUNIX",
              "type": "uint256"
            },
            {
              "internalType": "uint256",
              "name": "endDateUNIX",
              "type": "uint256"
            },
            {
              "internalType": "uint256",
              "name": "expires",
              "type": "uint256"
            }
          ],
          "internalType": "struct Marketplace.Listing[]",
          "name": "",
          "type": "tuple[]"
        }
      ],
      "stateMutability": "view",
      "type": "function"
    },
    {
      "inputs": [],
      "name": "getListingFee",
      "outputs": [
        {
          "internalType": "uint256",
          "name": "",
          "type": "uint256"
        }
      ],
      "stateMutability": "view",
      "type": "function"
    },
    {
      "inputs": [
        {
          "internalType": "address",
          "name": "nftContract",
          "type": "address"
        }
      ],
      "name": "isRentableNFT",
      "outputs": [
        {
          "internalType": "bool",
          "name": "",
          "type": "bool"
        }
      ],
      "stateMutability": "view",
      "type": "function"
    },
    {
      "inputs": [
        {
          "internalType": "address",
          "name": "nftContract",
          "type": "address"
        },
        {
          "internalType": "uint256",
          "name": "tokenId",
          "type": "uint256"
        },
        {
          "internalType": "uint256",
          "name": "pricePerDay",
          "type": "uint256"
        },
        {
          "internalType": "uint256",
          "name": "startDateUNIX",
          "type": "uint256"
        },
        {
          "internalType": "uint256",
          "name": "endDateUNIX",
          "type": "uint256"
        }
      ],
      "name": "listNFT",
      "outputs": [],
      "stateMutability": "payable",
      "type": "function"
    },
    {
      "inputs": [
        {
          "internalType": "address",
          "name": "nftContract",
          "type": "address"
        },
        {
          "internalType": "uint256",
          "name": "tokenId",
          "type": "uint256"
        },
        {
          "internalType": "uint64",
          "name": "expires",
          "type": "uint64"
        },
        {
          "internalType": "uint64",
          "name": "nbrDays",
          "type": "uint64"
        }
      ],
      "name": "rentNFT",
      "outputs": [],
      "stateMutability": "payable",
      "type": "function"
    },
    {
      "inputs": [
        {
          "internalType": "address",
          "name": "nftContract",
          "type": "address"
        },
        {
          "internalType": "uint256",
          "name": "tokenId",
          "type": "uint256"
        }
      ],
      "name": "unlistNFT",
      "outputs": [],
      "stateMutability": "payable",
      "type": "function"
    },
    {
      "inputs": [],
      "name": "updateExpiredListings",
      "outputs": [],
      "stateMutability": "nonpayable",
      "type": "function"
    }
  ],
  "bytecode": "0x608060405266038d7ea4c6800060035534801561001b57600080fd5b506001600055600280546001600160a01b031916331790556118fa806100426000396000f3fe6080604052600436106100705760003560e01c80637fc27efd1161004e5780637fc27efd146100b2578063ae73ccec146100c5578063b8fe6abe146100f0578063e9a6f4f61461010e57600080fd5b806332e5b75a146100755780634123db751461008a5780637e943afd1461009f575b600080fd5b610088610083366004611615565b61013e565b005b34801561009657600080fd5b50610088610473565b6100886100ad366004611664565b6106f7565b6100886100c03660046116a8565b610c8d565b3480156100d157600080fd5b506100da610fde565b6040516100e791906116d4565b60405180910390f35b3480156100fc57600080fd5b506003546040519081526020016100e7565b34801561011a57600080fd5b5061012e61012936600461176f565b611221565b60405190151581526020016100e7565b610146611329565b6001600160a01b0380851660009081526004602090815260408083208784529091529020600181015490911615806101815750806007015442115b6101c75760405162461bcd60e51b815260206004820152601260248201527113919508185b1c9958591e481c995b9d195960721b60448201526064015b60405180910390fd5b80600601548367ffffffffffffffff1611156102355760405162461bcd60e51b815260206004820152602760248201527f52656e74616c20706572696f642065786365656473206d617820646174652072604482015266656e7461626c6560c81b60648201526084016101be565b600481015467ffffffffffffffff8316906000906102549083906117a2565b9050803410156102b65760405162461bcd60e51b815260206004820152602760248201527f4e6f7420656e6f75676820657468657220746f20636f7665722072656e74616c604482015266081c195c9a5bd960ca1b60648201526084016101be565b82546040516001600160a01b039091169082156108fc029083906000818181858888f193505050501580156102ef573d6000803e3d6000fd5b506040516370182b2f60e11b81526001600160a01b0388169063e030565e9061032090899033908a906004016117b9565b600060405180830381600087803b15801561033a57600080fd5b505af115801561034e573d6000803e3d6000fd5b505050506001830180546001600160a01b0319163317905567ffffffffffffffff851660078401556040516331a9108f60e11b8152600481018790527f9e281a126f51088cc2a404608130a64cb50df5e046d30d0540344ef4f1b6ec2a906001600160a01b03891690636352211e90602401602060405180830381865afa1580156103dd573d6000803e3d6000fd5b505050506040513d601f19601f8201168201806040525081019061040191906117e2565b60058501546006860154604080516001600160a01b039485168152336020820152938c1690840152606083018a9052608083019190915260a082015267ffffffffffffffff871660c082015260e081018390526101000160405180910390a150505061046d6001600055565b50505050565b600061047f6006611382565b905060005b81518110156106f35760008282815181106104a1576104a16117ff565b6020026020010151905060006104da60056000846001600160a01b03166001600160a01b03168152602001908152602001600020611382565b905060005b81518110156106dd5760008282815181106104fc576104fc6117ff565b6020908102919091018101516001600160a01b03861660009081526004835260408082208383529093529190912060078101549192509042111561059e576040516370182b2f60e11b81526001600160a01b0386169063e030565e9061056b90859060009081906004016117b9565b600060405180830381600087803b15801561058557600080fd5b505af1158015610599573d6000803e3d6000fd5b505050505b42816006015410156106c8576040516370182b2f60e11b81526001600160a01b0386169063e030565e906105db90859060009081906004016117b9565b600060405180830381600087803b1580156105f557600080fd5b505af1158015610609573d6000803e3d6000fd5b5050506001600160a01b038616600090815260056020526040902061062f915083611396565b506001600160a01b0385166000818152600460208181526040808420878552825280842080546001600160a01b0319908116825560018201805482169055600282018054909116905560038101859055928301849055600580840185905560068401859055600790930184905593835252206106aa906113ab565b6000036106be576106bc6006866113b5565b505b6106c860016113ca565b505080806106d590611815565b9150506104df565b50505080806106eb90611815565b915050610484565b5050565b6106ff611329565b61070885611221565b6107545760405162461bcd60e51b815260206004820152601a60248201527f436f6e7472616374206973206e6f7420616e204552433439303700000000000060448201526064016101be565b6040516331a9108f60e11b81526004810185905233906001600160a01b03871690636352211e90602401602060405180830381865afa15801561079b573d6000803e3d6000fd5b505050506040513d601f19601f820116820180604052508101906107bf91906117e2565b6001600160a01b0316146108085760405162461bcd60e51b815260206004820152601060248201526f139bdd081bdddb995c881bd9881b999d60821b60448201526064016101be565b60035434146108595760405162461bcd60e51b815260206004820181905260248201527f4e6f7420656e6f75676820657468657220666f72206c697374696e672066656560448201526064016101be565b600083116108b75760405162461bcd60e51b815260206004820152602560248201527f52656e74616c2070726963652073686f756c6420626520677265617465722074604482015264068616e20360dc1b60648201526084016101be565b428210156109075760405162461bcd60e51b815260206004820181905260248201527f537461727420646174652063616e6e6f7420626520696e20746865207061737460448201526064016101be565b818110156109685760405162461bcd60e51b815260206004820152602860248201527f456e6420646174652063616e6e6f74206265206265666f726520746865207374604482015267617274206461746560c01b60648201526084016101be565b6001600160a01b03858116600090815260046020908152604080832088845290915290206002015416156109de5760405162461bcd60e51b815260206004820181905260248201527f54686973204e46542068617320616c7265616479206265656e206c697374656460448201526064016101be565b6002546003546040516001600160a01b039092169181156108fc0291906000818181858888f19350505050158015610a1a573d6000803e3d6000fd5b50604051806101000160405280336001600160a01b0316815260200160006001600160a01b03168152602001866001600160a01b03168152602001858152602001848152602001838152602001828152602001600081525060046000876001600160a01b03166001600160a01b03168152602001908152602001600020600086815260200190815260200160002060008201518160000160006101000a8154816001600160a01b0302191690836001600160a01b0316021790555060208201518160010160006101000a8154816001600160a01b0302191690836001600160a01b0316021790555060408201518160020160006101000a8154816001600160a01b0302191690836001600160a01b03160217905550606082015181600301556080820151816004015560a0820151816005015560c0820151816006015560e08201518160070155905050610b72600180546001019055565b6001600160a01b0385166000908152600560205260409020610b949085611421565b50610ba060068661142d565b506040516331a9108f60e11b8152600481018590527f51961ff716bd7d3e30c6869dae4d4c0f9e0c6abbae1aa5887f3f6fa8d68f34df906001600160a01b03871690636352211e90602401602060405180830381865afa158015610c08573d6000803e3d6000fd5b505050506040513d601f19601f82011682018060405250810190610c2c91906117e2565b604080516001600160a01b03928316815260006020820181905292891681830152606081018890526080810187905260a0810186905260c0810185905260e081019290925251908190036101000190a1610c866001600055565b5050505050565b610c95611329565b6001600160a01b03808316600090815260046020908152604080832085845290915290208054909116610d035760405162461bcd60e51b8152602060048201526016602482015275151a1a5cc8139195081a5cc81b9bdd081b1a5cdd195960521b60448201526064016101be565b80546001600160a01b0316331480610d2557506002546001600160a01b031633145b610d715760405162461bcd60e51b815260206004820152601a60248201527f4e6f7420617070726f76656420746f20756e6c697374204e465400000000000060448201526064016101be565b60018101546000906001600160a01b031615610e645781600401546018603c80428660070154610da1919061182e565b610dab9190611841565b610db59190611841565b610dbf9190611841565b610dca906001611863565b610dd491906117a2565b905080341015610e265760405162461bcd60e51b815260206004820181905260248201527f4e6f7420656e6f75676820657468657220746f20636f76657220726566756e6460448201526064016101be565b60018201546040516001600160a01b039091169082156108fc029083906000818181858888f19350505050158015610e62573d6000803e3d6000fd5b505b6040516370182b2f60e11b81526001600160a01b0385169063e030565e90610e9590869060009081906004016117b9565b600060405180830381600087803b158015610eaf57600080fd5b505af1158015610ec3573d6000803e3d6000fd5b5050506001600160a01b0385166000908152600560205260409020610ee9915084611396565b506001600160a01b0384166000818152600460208181526040808420888552825280842080546001600160a01b031990811682556001820180548216905560028201805490911690556003810185905592830184905560058084018590556006840185905560079093018490559383525220610f64906113ab565b600003610f7857610f766006856113b5565b505b610f8260016113ca565b604080513381526001600160a01b0386166020820152908101849052606081018290527f6d7362d1e96e1739a576062b58d2055c5f8f9b50bf703c53b1c26cd3a82548c69060800160405180910390a150506106f36001600055565b60606000610feb60015490565b67ffffffffffffffff81111561100357611003611876565b60405190808252806020026020018201604052801561109757816020015b61108460405180610100016040528060006001600160a01b0316815260200160006001600160a01b0316815260200160006001600160a01b0316815260200160008152602001600081526020016000815260200160008152602001600081525090565b8152602001906001900390816110215790505b5090506000806110a76006611382565b905060005b81518110156112185760008282815181106110c9576110c96117ff565b60200260200101519050600061110260056000846001600160a01b03166001600160a01b03168152602001908152602001600020611382565b905060005b8151811015611202576001600160a01b0383166000908152600460205260408120835190919084908490811061113f5761113f6117ff565b602090810291909101810151825281810192909252604090810160002081516101008101835281546001600160a01b03908116825260018301548116948201949094526002820154909316918301919091526003810154606083015260048101546080830152600581015460a0830152600681015460c08301526007015460e082015287518890889081106111d6576111d66117ff565b602002602001018190525085806111ec90611815565b96505080806111fa90611815565b915050611107565b505050808061121090611815565b9150506110ac565b50919392505050565b6040516301ffc9a760e01b8152632b424ad760e21b6004820152600090819081906001600160a01b038516906301ffc9a790602401602060405180830381865afa92505050801561128f575060408051601f3d908101601f1916820190925261128c9181019061188c565b60015b61129d575060009392505050565b6040516301ffc9a760e01b81526380ac58cd60e01b60048201529092506001600160a01b038516906301ffc9a790602401602060405180830381865afa925050508015611307575060408051601f3d908101601f191682019092526113049181019061188c565b60015b611315575060009392505050565b90508180156113215750805b949350505050565b60026000540361137b5760405162461bcd60e51b815260206004820152601f60248201527f5265656e7472616e637947756172643a207265656e7472616e742063616c6c0060448201526064016101be565b6002600055565b6060600061138f83611442565b9392505050565b60006113a2838361149e565b90505b92915050565b60006113a5825490565b60006113a2836001600160a01b03841661149e565b8054806114195760405162461bcd60e51b815260206004820152601b60248201527f436f756e7465723a2064656372656d656e74206f766572666c6f77000000000060448201526064016101be565b600019019055565b60006113a28383611591565b60006113a2836001600160a01b038416611591565b60608160000180548060200260200160405190810160405280929190818152602001828054801561149257602002820191906000526020600020905b81548152602001906001019080831161147e575b50505050509050919050565b600081815260018301602052604081205480156115875760006114c260018361182e565b85549091506000906114d69060019061182e565b905081811461153b5760008660000182815481106114f6576114f66117ff565b9060005260206000200154905080876000018481548110611519576115196117ff565b6000918252602080832090910192909255918252600188019052604090208390555b855486908061154c5761154c6118ae565b6001900381819060005260206000200160009055905585600101600086815260200190815260200160002060009055600193505050506113a5565b60009150506113a5565b60008181526001830160205260408120546115d8575081546001818101845560008481526020808220909301849055845484825282860190935260409020919091556113a5565b5060006113a5565b6001600160a01b03811681146115f557600080fd5b50565b803567ffffffffffffffff8116811461161057600080fd5b919050565b6000806000806080858703121561162b57600080fd5b8435611636816115e0565b93506020850135925061164b604086016115f8565b9150611659606086016115f8565b905092959194509250565b600080600080600060a0868803121561167c57600080fd5b8535611687816115e0565b97602087013597506040870135966060810135965060800135945092505050565b600080604083850312156116bb57600080fd5b82356116c6816115e0565b946020939093013593505050565b602080825282518282018190526000919060409081850190868401855b8281101561176257815180516001600160a01b03908116865287820151811688870152868201511686860152606080820151908601526080808201519086015260a0808201519086015260c0808201519086015260e0908101519085015261010090930192908501906001016116f1565b5091979650505050505050565b60006020828403121561178157600080fd5b813561138f816115e0565b634e487b7160e01b600052601160045260246000fd5b80820281158282048414176113a5576113a561178c565b9283526001600160a01b0391909116602083015267ffffffffffffffff16604082015260600190565b6000602082840312156117f457600080fd5b815161138f816115e0565b634e487b7160e01b600052603260045260246000fd5b6000600182016118275761182761178c565b5060010190565b818103818111156113a5576113a561178c565b60008261185e57634e487b7160e01b600052601260045260246000fd5b500490565b808201808211156113a5576113a561178c565b634e487b7160e01b600052604160045260246000fd5b60006020828403121561189e57600080fd5b8151801515811461138f57600080fd5b634e487b7160e01b600052603160045260246000fdfea26469706673582212200f8c7a7d366c773de39d21aacd9745bcb88f52f5cf02f76b4895d0bae80ee38c64736f6c63430008120033",
  "linkReferences": {},
  "deployedLinkReferences": {}
}